{
  "contractName": "ERC20Basic",
  "abi": [
    {
      "inputs": [
        {
          "internalType": "uint256",
          "name": "initialSupply",
          "type": "uint256"
        }
      ],
      "stateMutability": "nonpayable",
      "type": "constructor"
    },
    {
      "anonymous": false,
      "inputs": [
        {
          "indexed": true,
          "internalType": "address",
          "name": "owner",
          "type": "address"
        },
        {
          "indexed": true,
          "internalType": "address",
          "name": "spender",
          "type": "address"
        },
        {
          "indexed": false,
          "internalType": "uint256",
          "name": "value",
          "type": "uint256"
        }
      ],
      "name": "Approval",
      "type": "event"
    },
    {
      "anonymous": false,
      "inputs": [
        {
          "indexed": true,
          "internalType": "address",
          "name": "from",
          "type": "address"
        },
        {
          "indexed": true,
          "internalType": "address",
          "name": "to",
          "type": "address"
        },
        {
          "indexed": false,
          "internalType": "uint256",
          "name": "value",
          "type": "uint256"
        }
      ],
      "name": "Transfer",
      "type": "event"
    },
    {
      "inputs": [],
      "name": "decimals",
      "outputs": [
        {
          "internalType": "uint8",
          "name": "",
          "type": "uint8"
        }
      ],
      "stateMutability": "view",
      "type": "function"
    },
    {
      "inputs": [],
      "name": "name",
      "outputs": [
        {
          "internalType": "string",
          "name": "",
          "type": "string"
        }
      ],
      "stateMutability": "view",
      "type": "function"
    },
    {
      "inputs": [],
      "name": "symbol",
      "outputs": [
        {
          "internalType": "string",
          "name": "",
          "type": "string"
        }
      ],
      "stateMutability": "view",
      "type": "function"
    },
    {
      "inputs": [],
      "name": "totalSupply",
      "outputs": [
        {
          "internalType": "uint256",
          "name": "",
          "type": "uint256"
        }
      ],
      "stateMutability": "view",
      "type": "function"
    },
    {
      "inputs": [
        {
          "internalType": "uint256",
          "name": "newTokensAmount",
          "type": "uint256"
        }
      ],
      "name": "increaseTotalSupply",
      "outputs": [],
      "stateMutability": "nonpayable",
      "type": "function"
    },
    {
      "inputs": [
        {
          "internalType": "address",
          "name": "tokenOwner",
          "type": "address"
        }
      ],
      "name": "balanceOf",
      "outputs": [
        {
          "internalType": "uint256",
          "name": "",
          "type": "uint256"
        }
      ],
      "stateMutability": "view",
      "type": "function"
    },
    {
      "inputs": [
        {
          "internalType": "address",
          "name": "owner",
          "type": "address"
        },
        {
          "internalType": "address",
          "name": "delegate",
          "type": "address"
        }
      ],
      "name": "allowance",
      "outputs": [
        {
          "internalType": "uint256",
          "name": "",
          "type": "uint256"
        }
      ],
      "stateMutability": "view",
      "type": "function"
    },
    {
      "inputs": [
        {
          "internalType": "address",
          "name": "recipient",
          "type": "address"
        },
        {
          "internalType": "uint256",
          "name": "numTokens",
          "type": "uint256"
        }
      ],
      "name": "transfer",
      "outputs": [
        {
          "internalType": "bool",
          "name": "",
          "type": "bool"
        }
      ],
      "stateMutability": "nonpayable",
      "type": "function"
    },
    {
      "inputs": [
        {
          "internalType": "address",
          "name": "delegate",
          "type": "address"
        },
        {
          "internalType": "uint256",
          "name": "numTokens",
          "type": "uint256"
        }
      ],
      "name": "approve",
      "outputs": [
        {
          "internalType": "bool",
          "name": "",
          "type": "bool"
        }
      ],
      "stateMutability": "nonpayable",
      "type": "function"
    },
    {
      "inputs": [
        {
          "internalType": "address",
          "name": "owner",
          "type": "address"
        },
        {
          "internalType": "address",
          "name": "buyer",
          "type": "address"
        },
        {
          "internalType": "uint256",
          "name": "numTokens",
          "type": "uint256"
        }
      ],
      "name": "transferFrom",
      "outputs": [
        {
          "internalType": "bool",
          "name": "",
          "type": "bool"
        }
      ],
      "stateMutability": "nonpayable",
      "type": "function"
    }
  ],
  "bytecode": "0x608060405234801561001057600080fd5b50604051610fbb380380610fbb833981810160405281019061003291906100bf565b806002819055506002546000803373ffffffffffffffffffffffffffffffffffffffff1673ffffffffffffffffffffffffffffffffffffffff16815260200190815260200160002081905550506100ec565b600080fd5b6000819050919050565b61009c81610089565b81146100a757600080fd5b50565b6000815190506100b981610093565b92915050565b6000602082840312156100d5576100d4610084565b5b60006100e3848285016100aa565b91505092915050565b610ec0806100fb6000396000f3fe608060405234801561001057600080fd5b506004361061009e5760003560e01c8063313ce56711610066578063313ce5671461015b57806370a082311461017957806395d89b41146101a9578063a9059cbb146101c7578063dd62ed3e146101f75761009e565b806306fdde03146100a3578063095ea7b3146100c157806318160ddd146100f15780631d43cc981461010f57806323b872dd1461012b575b600080fd5b6100ab610227565b6040516100b89190610b23565b60405180910390f35b6100db60048036038101906100d69190610bde565b610260565b6040516100e89190610c39565b60405180910390f35b6100f9610352565b6040516101069190610c63565b60405180910390f35b61012960048036038101906101249190610c7e565b61035c565b005b61014560048036038101906101409190610cab565b6103cd565b6040516101529190610c39565b60405180910390f35b610163610748565b6040516101709190610d1a565b60405180910390f35b610193600480360381019061018e9190610d35565b61074d565b6040516101a09190610c63565b60405180910390f35b6101b1610795565b6040516101be9190610b23565b60405180910390f35b6101e160048036038101906101dc9190610bde565b6107ce565b6040516101ee9190610c39565b60405180910390f35b610211600480360381019061020c9190610d62565b6109b0565b60405161021e9190610c63565b60405180910390f35b6040518060400160405280601181526020017f4552433230426c6f636b636861696e415a00000000000000000000000000000081525081565b600081600160003373ffffffffffffffffffffffffffffffffffffffff1673ffffffffffffffffffffffffffffffffffffffff16815260200190815260200160002060008573ffffffffffffffffffffffffffffffffffffffff1673ffffffffffffffffffffffffffffffffffffffff168152602001908152602001600020819055508273ffffffffffffffffffffffffffffffffffffffff163373ffffffffffffffffffffffffffffffffffffffff167f8c5be1e5ebec7d5bd14f71427d1e84f3dd0314c0f7b2291e5b200ac8c7c3b925846040516103409190610c63565b60405180910390a36001905092915050565b6000600254905090565b806002600082825461036e9190610dd1565b92505081905550806000803373ffffffffffffffffffffffffffffffffffffffff1673ffffffffffffffffffffffffffffffffffffffff16815260200190815260200160002060008282546103c39190610dd1565b9250508190555050565b60008060008573ffffffffffffffffffffffffffffffffffffffff1673ffffffffffffffffffffffffffffffffffffffff1681526020019081526020016000205482111561041a57600080fd5b600160008573ffffffffffffffffffffffffffffffffffffffff1673ffffffffffffffffffffffffffffffffffffffff16815260200190815260200160002060003373ffffffffffffffffffffffffffffffffffffffff1673ffffffffffffffffffffffffffffffffffffffff168152602001908152602001600020548211156104a357600080fd5b6104f4826000808773ffffffffffffffffffffffffffffffffffffffff1673ffffffffffffffffffffffffffffffffffffffff16815260200190815260200160002054610a3790919063ffffffff16565b6000808673ffffffffffffffffffffffffffffffffffffffff1673ffffffffffffffffffffffffffffffffffffffff168152602001908152602001600020819055506105c582600160008773ffffffffffffffffffffffffffffffffffffffff1673ffffffffffffffffffffffffffffffffffffffff16815260200190815260200160002060003373ffffffffffffffffffffffffffffffffffffffff1673ffffffffffffffffffffffffffffffffffffffff16815260200190815260200160002054610a3790919063ffffffff16565b600160008673ffffffffffffffffffffffffffffffffffffffff1673ffffffffffffffffffffffffffffffffffffffff16815260200190815260200160002060003373ffffffffffffffffffffffffffffffffffffffff1673ffffffffffffffffffffffffffffffffffffffff16815260200190815260200160002081905550610696826000808673ffffffffffffffffffffffffffffffffffffffff1673ffffffffffffffffffffffffffffffffffffffff16815260200190815260200160002054610a5e90919063ffffffff16565b6000808573ffffffffffffffffffffffffffffffffffffffff1673ffffffffffffffffffffffffffffffffffffffff168152602001908152602001600020819055508273ffffffffffffffffffffffffffffffffffffffff168473ffffffffffffffffffffffffffffffffffffffff167fddf252ad1be2c89b69c2b068fc378daa952ba7f163c4a11628f55a4df523b3ef846040516107359190610c63565b60405180910390a3600190509392505050565b601281565b60008060008373ffffffffffffffffffffffffffffffffffffffff1673ffffffffffffffffffffffffffffffffffffffff168152602001908152602001600020549050919050565b6040518060400160405280600381526020017f455243000000000000000000000000000000000000000000000000000000000081525081565b60008060003373ffffffffffffffffffffffffffffffffffffffff1673ffffffffffffffffffffffffffffffffffffffff1681526020019081526020016000205482111561081b57600080fd5b61086c826000803373ffffffffffffffffffffffffffffffffffffffff1673ffffffffffffffffffffffffffffffffffffffff16815260200190815260200160002054610a3790919063ffffffff16565b6000803373ffffffffffffffffffffffffffffffffffffffff1673ffffffffffffffffffffffffffffffffffffffff168152602001908152602001600020819055506108ff826000808673ffffffffffffffffffffffffffffffffffffffff1673ffffffffffffffffffffffffffffffffffffffff16815260200190815260200160002054610a5e90919063ffffffff16565b6000808573ffffffffffffffffffffffffffffffffffffffff1673ffffffffffffffffffffffffffffffffffffffff168152602001908152602001600020819055508273ffffffffffffffffffffffffffffffffffffffff163373ffffffffffffffffffffffffffffffffffffffff167fddf252ad1be2c89b69c2b068fc378daa952ba7f163c4a11628f55a4df523b3ef8460405161099e9190610c63565b60405180910390a36001905092915050565b6000600160008473ffffffffffffffffffffffffffffffffffffffff1673ffffffffffffffffffffffffffffffffffffffff16815260200190815260200160002060008373ffffffffffffffffffffffffffffffffffffffff1673ffffffffffffffffffffffffffffffffffffffff16815260200190815260200160002054905092915050565b600082821115610a4a57610a49610e27565b5b8183610a569190610e56565b905092915050565b6000808284610a6d9190610dd1565b905083811015610a8057610a7f610e27565b5b8091505092915050565b600081519050919050565b600082825260208201905092915050565b60005b83811015610ac4578082015181840152602081019050610aa9565b83811115610ad3576000848401525b50505050565b6000601f19601f8301169050919050565b6000610af582610a8a565b610aff8185610a95565b9350610b0f818560208601610aa6565b610b1881610ad9565b840191505092915050565b60006020820190508181036000830152610b3d8184610aea565b905092915050565b600080fd5b600073ffffffffffffffffffffffffffffffffffffffff82169050919050565b6000610b7582610b4a565b9050919050565b610b8581610b6a565b8114610b9057600080fd5b50565b600081359050610ba281610b7c565b92915050565b6000819050919050565b610bbb81610ba8565b8114610bc657600080fd5b50565b600081359050610bd881610bb2565b92915050565b60008060408385031215610bf557610bf4610b45565b5b6000610c0385828601610b93565b9250506020610c1485828601610bc9565b9150509250929050565b60008115159050919050565b610c3381610c1e565b82525050565b6000602082019050610c4e6000830184610c2a565b92915050565b610c5d81610ba8565b82525050565b6000602082019050610c786000830184610c54565b92915050565b600060208284031215610c9457610c93610b45565b5b6000610ca284828501610bc9565b91505092915050565b600080600060608486031215610cc457610cc3610b45565b5b6000610cd286828701610b93565b9350506020610ce386828701610b93565b9250506040610cf486828701610bc9565b9150509250925092565b600060ff82169050919050565b610d1481610cfe565b82525050565b6000602082019050610d2f6000830184610d0b565b92915050565b600060208284031215610d4b57610d4a610b45565b5b6000610d5984828501610b93565b91505092915050565b60008060408385031215610d7957610d78610b45565b5b6000610d8785828601610b93565b9250506020610d9885828601610b93565b9150509250929050565b7f4e487b7100000000000000000000000000000000000000000000000000000000600052601160045260246000fd5b6000610ddc82610ba8565b9150610de783610ba8565b9250827fffffffffffffffffffffffffffffffffffffffffffffffffffffffffffffffff03821115610e1c57610e1b610da2565b5b828201905092915050565b7f4e487b7100000000000000000000000000000000000000000000000000000000600052600160045260246000fd5b6000610e6182610ba8565b9150610e6c83610ba8565b925082821015610e7f57610e7e610da2565b5b82820390509291505056fea26469706673582212204198cadc0a72ca33814f8aee7ebfa7cddad35352bf30ba256471d94298a7b7a764736f6c634300080a0033",
  "immutableReferences": {},
  "source": "// SPDX-License-Identifier: MIT\r\npragma solidity >= 0.8.10 <0.9.0;\r\npragma experimental ABIEncoderV2;\r\nimport \"./SafeMath.sol\";\r\n\r\n\r\n\r\n//Juan Gabriel ---> 0x5B38Da6a701c568545dCfcB03FcB875f56beddC4\r\n//Juan Amengual ---> 0xAb8483F64d9C6d1EcF9b849Ae677dD3315835cb2\r\n//Mara Santos ---> 0x4B20993Bc481177ec7E8f571ceCaE8A9e22C02db\r\n\r\n//Interface de nuestro token ERC20\r\ninterface IERC20{\r\n    //Devuelve la cantidad de tokens en existencia\r\n    function totalSupply() external view returns (uint256);\r\n\r\n    //Devuelve la cantidad de rokens para una direccin indicada por parmetro\r\n    function balanceOf(address account) external view returns (uint256);\r\n\r\n    //Devuelve el nmero de token que el spender podr gastar en nombre del propietario (owner)\r\n    function allowance(address owner, address spender) external view returns (uint256);\r\n\r\n    //Devuelve un valor booleano resultado de la operacin indicada\r\n    function transfer(address recipient, uint256 amount) external returns (bool);\r\n\r\n    //Devuelve un valor booleano con el resultado de la operacin de gasto\r\n    function approve(address spender, uint256 amount) external returns (bool);\r\n\r\n    //Devuelve un valor booleano con el resultado de la operacin de paso de una cantidad de tokens usando el mtodo allowance()\r\n    function transferFrom(address sender, address recipient, uint256 amount) external returns (bool);\r\n\r\n\r\n\r\n    //Evento que se debe emitir cuando una cantidad de tokens pase de un origen a un destino\r\n    event Transfer(address indexed from, address indexed to, uint256 value);\r\n\r\n    //Evento que se debe emitir cuando se establece una asignacin con el mmtodo allowance()\r\n    event Approval(address indexed owner, address indexed spender, uint256 value);\r\n}\r\n\r\n//Implementacin de las funciones del token ERC20\r\ncontract ERC20Basic is IERC20{\r\n\r\n    string public constant name = \"ERC20BlockchainAZ\";\r\n    string public constant symbol = \"ERC\";\r\n    uint8 public constant decimals = 18;\r\n\r\n    using SafeMath for uint256;\r\n\r\n    mapping (address => uint) balances;\r\n    mapping (address => mapping (address => uint)) allowed;\r\n    uint256 totalSupply_;\r\n\r\n    constructor (uint256 initialSupply) {\r\n        totalSupply_ = initialSupply;\r\n        balances[msg.sender] = totalSupply_;\r\n    }\r\n\r\n\r\n    function totalSupply() public override view returns (uint256){\r\n        return totalSupply_;\r\n    }\r\n\r\n    function increaseTotalSupply(uint newTokensAmount) public {\r\n        totalSupply_ += newTokensAmount;\r\n        balances[msg.sender] += newTokensAmount;\r\n    }\r\n\r\n    function balanceOf(address tokenOwner) public override view returns (uint256){\r\n        return balances[tokenOwner];\r\n    }\r\n\r\n    function allowance(address owner, address delegate) public override view returns (uint256){\r\n        return allowed[owner][delegate];\r\n    }\r\n\r\n    function transfer(address recipient, uint256 numTokens) public override returns (bool){\r\n        require(numTokens <= balances[msg.sender]);\r\n        balances[msg.sender] = balances[msg.sender].sub(numTokens);\r\n        balances[recipient] = balances[recipient].add(numTokens);\r\n        emit Transfer(msg.sender, recipient, numTokens);\r\n        return true;\r\n    }\r\n\r\n    function approve(address delegate, uint256 numTokens) public override returns (bool){\r\n        allowed[msg.sender][delegate] = numTokens;\r\n        emit Approval(msg.sender, delegate, numTokens);\r\n        return true;\r\n    }\r\n\r\n    function transferFrom(address owner, address buyer, uint256 numTokens) public override returns (bool){\r\n        require(numTokens <= balances[owner]);\r\n        require(numTokens <= allowed[owner][msg.sender]);\r\n\r\n        balances[owner] = balances[owner].sub(numTokens);\r\n        allowed[owner][msg.sender] = allowed[owner][msg.sender].sub(numTokens);\r\n        balances[buyer] = balances[buyer].add(numTokens);\r\n        emit Transfer(owner, buyer, numTokens);\r\n        return true;\r\n    }\r\n}",
  "sourcePath": "C:\\Users\\apolenyaka\\dwhelper\\Curso Crea DApps con Tokens NFT en Ethereum usando Truffle y React en Udemy.com\\codificando\\dapps\\ERC20\\src\\contracts\\ERC20.sol",
  "compiler": {
    "name": "solc",
    "version": "0.8.10+commit.fc410830.Emscripten.clang"
  },
  "schemaVersion": "3.4.3",
  "updatedAt": "2021-12-02T05:51:15.402Z",
  "devdoc": {
    "kind": "dev",
    "methods": {},
    "version": 1
  },
  "userdoc": {
    "kind": "user",
    "methods": {},
    "version": 1
  }
}