{
  "contractName": "Main",
  "abi": [
    {
      "inputs": [],
      "stateMutability": "nonpayable",
      "type": "constructor"
    },
    {
      "inputs": [],
      "name": "contrato",
      "outputs": [
        {
          "internalType": "address",
          "name": "",
          "type": "address"
        }
      ],
      "stateMutability": "view",
      "type": "function",
      "constant": true
    },
    {
      "inputs": [],
      "name": "owner",
      "outputs": [
        {
          "internalType": "address",
          "name": "",
          "type": "address"
        }
      ],
      "stateMutability": "view",
      "type": "function",
      "constant": true
    },
    {
      "inputs": [],
      "name": "getOwner",
      "outputs": [
        {
          "internalType": "address",
          "name": "",
          "type": "address"
        }
      ],
      "stateMutability": "view",
      "type": "function",
      "constant": true
    },
    {
      "inputs": [],
      "name": "getContract",
      "outputs": [
        {
          "internalType": "address",
          "name": "",
          "type": "address"
        }
      ],
      "stateMutability": "view",
      "type": "function",
      "constant": true
    },
    {
      "inputs": [
        {
          "internalType": "address",
          "name": "_destinatario",
          "type": "address"
        },
        {
          "internalType": "uint256",
          "name": "_numTokens",
          "type": "uint256"
        }
      ],
      "name": "send_tokens",
      "outputs": [],
      "stateMutability": "payable",
      "type": "function",
      "payable": true
    },
    {
      "inputs": [
        {
          "internalType": "uint256",
          "name": "_numTokens",
          "type": "uint256"
        }
      ],
      "name": "GenerarTokens",
      "outputs": [],
      "stateMutability": "nonpayable",
      "type": "function"
    },
    {
      "inputs": [
        {
          "internalType": "address",
          "name": "_direccion",
          "type": "address"
        }
      ],
      "name": "balance_direccion",
      "outputs": [
        {
          "internalType": "uint256",
          "name": "",
          "type": "uint256"
        }
      ],
      "stateMutability": "view",
      "type": "function",
      "constant": true
    },
    {
      "inputs": [],
      "name": "balance_contrato",
      "outputs": [
        {
          "internalType": "uint256",
          "name": "",
          "type": "uint256"
        }
      ],
      "stateMutability": "view",
      "type": "function",
      "constant": true
    }
  ],
  "bytecode": "0x608060405234801561001057600080fd5b506127106040516100209061010d565b61002a919061016a565b604051809103906000f080158015610046573d6000803e3d6000fd5b506000806101000a81548173ffffffffffffffffffffffffffffffffffffffff021916908373ffffffffffffffffffffffffffffffffffffffff16021790555033600160006101000a81548173ffffffffffffffffffffffffffffffffffffffff021916908373ffffffffffffffffffffffffffffffffffffffff16021790555030600260006101000a81548173ffffffffffffffffffffffffffffffffffffffff021916908373ffffffffffffffffffffffffffffffffffffffff160217905550610185565b610fbb8062000e0e83390190565b6000819050919050565b6000819050919050565b6000819050919050565b600061015461014f61014a8461011b565b61012f565b610125565b9050919050565b61016481610139565b82525050565b600060208201905061017f600083018461015b565b92915050565b610c7980620001956000396000f3fe60806040526004361061007b5760003560e01c8063a78725471161004e578063a78725471461012a578063aa8106c414610146578063c473de2b14610171578063e1a01e67146101ae5761007b565b80637c1b38bf14610080578063893d20e8146100a95780638da5cb5b146100d4578063958f85bd146100ff575b600080fd5b34801561008c57600080fd5b506100a760048036038101906100a29190610737565b6101d9565b005b3480156100b557600080fd5b506100be6102f7565b6040516100cb91906107a5565b60405180910390f35b3480156100e057600080fd5b506100e9610321565b6040516100f691906107a5565b60405180910390f35b34801561010b57600080fd5b50610114610347565b60405161012191906107a5565b60405180910390f35b610144600480360381019061013f91906107ec565b610371565b005b34801561015257600080fd5b5061015b610551565b604051610168919061083b565b60405180910390f35b34801561017d57600080fd5b5061019860048036038101906101939190610856565b610615565b6040516101a5919061083b565b60405180910390f35b3480156101ba57600080fd5b506101c36106b9565b6040516101d091906107a5565b60405180910390f35b600160009054906101000a900473ffffffffffffffffffffffffffffffffffffffff1673ffffffffffffffffffffffffffffffffffffffff163373ffffffffffffffffffffffffffffffffffffffff1614610269576040517f08c379a000000000000000000000000000000000000000000000000000000000815260040161026090610906565b60405180910390fd5b60008054906101000a900473ffffffffffffffffffffffffffffffffffffffff1673ffffffffffffffffffffffffffffffffffffffff16631d43cc98826040518263ffffffff1660e01b81526004016102c2919061083b565b600060405180830381600087803b1580156102dc57600080fd5b505af11580156102f0573d6000803e3d6000fd5b5050505050565b6000600160009054906101000a900473ffffffffffffffffffffffffffffffffffffffff16905090565b600160009054906101000a900473ffffffffffffffffffffffffffffffffffffffff1681565b6000600260009054906101000a900473ffffffffffffffffffffffffffffffffffffffff16905090565b600a8111156103b5576040517f08c379a00000000000000000000000000000000000000000000000000000000081526004016103ac90610998565b60405180910390fd5b60006103c0826106df565b905080341015610405576040517f08c379a00000000000000000000000000000000000000000000000000000000081526004016103fc90610a2a565b60405180910390fd5b600081346104139190610a79565b90503373ffffffffffffffffffffffffffffffffffffffff166108fc829081150290604051600060405180830381858888f1935050505015801561045b573d6000803e3d6000fd5b506000610466610551565b9050838110156104ab576040517f08c379a00000000000000000000000000000000000000000000000000000000081526004016104a290610af9565b60405180910390fd5b60008054906101000a900473ffffffffffffffffffffffffffffffffffffffff1673ffffffffffffffffffffffffffffffffffffffff1663a9059cbb86866040518363ffffffff1660e01b8152600401610506929190610b19565b6020604051808303816000875af1158015610525573d6000803e3d6000fd5b505050506040513d601f19601f820116820180604052508101906105499190610b7a565b505050505050565b60008060009054906101000a900473ffffffffffffffffffffffffffffffffffffffff1673ffffffffffffffffffffffffffffffffffffffff166370a08231600260009054906101000a900473ffffffffffffffffffffffffffffffffffffffff166040518263ffffffff1660e01b81526004016105cf91906107a5565b602060405180830381865afa1580156105ec573d6000803e3d6000fd5b505050506040513d601f19601f820116820180604052508101906106109190610bbc565b905090565b60008060009054906101000a900473ffffffffffffffffffffffffffffffffffffffff1673ffffffffffffffffffffffffffffffffffffffff166370a08231836040518263ffffffff1660e01b815260040161067191906107a5565b602060405180830381865afa15801561068e573d6000803e3d6000fd5b505050506040513d601f19601f820116820180604052508101906106b29190610bbc565b9050919050565b600260009054906101000a900473ffffffffffffffffffffffffffffffffffffffff1681565b6000670de0b6b3a7640000826106f59190610be9565b9050919050565b600080fd5b6000819050919050565b61071481610701565b811461071f57600080fd5b50565b6000813590506107318161070b565b92915050565b60006020828403121561074d5761074c6106fc565b5b600061075b84828501610722565b91505092915050565b600073ffffffffffffffffffffffffffffffffffffffff82169050919050565b600061078f82610764565b9050919050565b61079f81610784565b82525050565b60006020820190506107ba6000830184610796565b92915050565b6107c981610784565b81146107d457600080fd5b50565b6000813590506107e6816107c0565b92915050565b60008060408385031215610803576108026106fc565b5b6000610811858286016107d7565b925050602061082285828601610722565b9150509250929050565b61083581610701565b82525050565b6000602082019050610850600083018461082c565b92915050565b60006020828403121561086c5761086b6106fc565b5b600061087a848285016107d7565b91505092915050565b600082825260208201905092915050565b7f4e6f207469656e65207065726d69736f732070617220656a656375746172206560008201527f7374612066756e63696f6e000000000000000000000000000000000000000000602082015250565b60006108f0602b83610883565b91506108fb82610894565b604082019050919050565b6000602082019050818103600083015261091f816108e3565b9050919050565b7f4c612063616e746964616420646520746f6b656e732065732064656d6173696160008201527f646f20616c746100000000000000000000000000000000000000000000000000602082015250565b6000610982602783610883565b915061098d82610926565b604082019050919050565b600060208201905081810360008301526109b181610975565b9050919050565b7f436f6d707261206d656e6f7320746f6b656e73206f207061676120636f6e206d60008201527f6173206574686572730000000000000000000000000000000000000000000000602082015250565b6000610a14602983610883565b9150610a1f826109b8565b604082019050919050565b60006020820190508181036000830152610a4381610a07565b9050919050565b7f4e487b7100000000000000000000000000000000000000000000000000000000600052601160045260246000fd5b6000610a8482610701565b9150610a8f83610701565b925082821015610aa257610aa1610a4a565b5b828203905092915050565b7f436f6d70726120756e206e756d65726f206d656e6f7220646520746f6b656e73600082015250565b6000610ae3602083610883565b9150610aee82610aad565b602082019050919050565b60006020820190508181036000830152610b1281610ad6565b9050919050565b6000604082019050610b2e6000830185610796565b610b3b602083018461082c565b9392505050565b60008115159050919050565b610b5781610b42565b8114610b6257600080fd5b50565b600081519050610b7481610b4e565b92915050565b600060208284031215610b9057610b8f6106fc565b5b6000610b9e84828501610b65565b91505092915050565b600081519050610bb68161070b565b92915050565b600060208284031215610bd257610bd16106fc565b5b6000610be084828501610ba7565b91505092915050565b6000610bf482610701565b9150610bff83610701565b9250817fffffffffffffffffffffffffffffffffffffffffffffffffffffffffffffffff0483118215151615610c3857610c37610a4a565b5b82820290509291505056fea26469706673582212207030463e890678456376d6b4e94b498843583d08ce6472f55b60d6d9ec4adc6864736f6c634300080a0033608060405234801561001057600080fd5b50604051610fbb380380610fbb833981810160405281019061003291906100bf565b806002819055506002546000803373ffffffffffffffffffffffffffffffffffffffff1673ffffffffffffffffffffffffffffffffffffffff16815260200190815260200160002081905550506100ec565b600080fd5b6000819050919050565b61009c81610089565b81146100a757600080fd5b50565b6000815190506100b981610093565b92915050565b6000602082840312156100d5576100d4610084565b5b60006100e3848285016100aa565b91505092915050565b610ec0806100fb6000396000f3fe608060405234801561001057600080fd5b506004361061009e5760003560e01c8063313ce56711610066578063313ce5671461015b57806370a082311461017957806395d89b41146101a9578063a9059cbb146101c7578063dd62ed3e146101f75761009e565b806306fdde03146100a3578063095ea7b3146100c157806318160ddd146100f15780631d43cc981461010f57806323b872dd1461012b575b600080fd5b6100ab610227565b6040516100b89190610b23565b60405180910390f35b6100db60048036038101906100d69190610bde565b610260565b6040516100e89190610c39565b60405180910390f35b6100f9610352565b6040516101069190610c63565b60405180910390f35b61012960048036038101906101249190610c7e565b61035c565b005b61014560048036038101906101409190610cab565b6103cd565b6040516101529190610c39565b60405180910390f35b610163610748565b6040516101709190610d1a565b60405180910390f35b610193600480360381019061018e9190610d35565b61074d565b6040516101a09190610c63565b60405180910390f35b6101b1610795565b6040516101be9190610b23565b60405180910390f35b6101e160048036038101906101dc9190610bde565b6107ce565b6040516101ee9190610c39565b60405180910390f35b610211600480360381019061020c9190610d62565b6109b0565b60405161021e9190610c63565b60405180910390f35b6040518060400160405280601181526020017f4552433230426c6f636b636861696e415a00000000000000000000000000000081525081565b600081600160003373ffffffffffffffffffffffffffffffffffffffff1673ffffffffffffffffffffffffffffffffffffffff16815260200190815260200160002060008573ffffffffffffffffffffffffffffffffffffffff1673ffffffffffffffffffffffffffffffffffffffff168152602001908152602001600020819055508273ffffffffffffffffffffffffffffffffffffffff163373ffffffffffffffffffffffffffffffffffffffff167f8c5be1e5ebec7d5bd14f71427d1e84f3dd0314c0f7b2291e5b200ac8c7c3b925846040516103409190610c63565b60405180910390a36001905092915050565b6000600254905090565b806002600082825461036e9190610dd1565b92505081905550806000803373ffffffffffffffffffffffffffffffffffffffff1673ffffffffffffffffffffffffffffffffffffffff16815260200190815260200160002060008282546103c39190610dd1565b9250508190555050565b60008060008573ffffffffffffffffffffffffffffffffffffffff1673ffffffffffffffffffffffffffffffffffffffff1681526020019081526020016000205482111561041a57600080fd5b600160008573ffffffffffffffffffffffffffffffffffffffff1673ffffffffffffffffffffffffffffffffffffffff16815260200190815260200160002060003373ffffffffffffffffffffffffffffffffffffffff1673ffffffffffffffffffffffffffffffffffffffff168152602001908152602001600020548211156104a357600080fd5b6104f4826000808773ffffffffffffffffffffffffffffffffffffffff1673ffffffffffffffffffffffffffffffffffffffff16815260200190815260200160002054610a3790919063ffffffff16565b6000808673ffffffffffffffffffffffffffffffffffffffff1673ffffffffffffffffffffffffffffffffffffffff168152602001908152602001600020819055506105c582600160008773ffffffffffffffffffffffffffffffffffffffff1673ffffffffffffffffffffffffffffffffffffffff16815260200190815260200160002060003373ffffffffffffffffffffffffffffffffffffffff1673ffffffffffffffffffffffffffffffffffffffff16815260200190815260200160002054610a3790919063ffffffff16565b600160008673ffffffffffffffffffffffffffffffffffffffff1673ffffffffffffffffffffffffffffffffffffffff16815260200190815260200160002060003373ffffffffffffffffffffffffffffffffffffffff1673ffffffffffffffffffffffffffffffffffffffff16815260200190815260200160002081905550610696826000808673ffffffffffffffffffffffffffffffffffffffff1673ffffffffffffffffffffffffffffffffffffffff16815260200190815260200160002054610a5e90919063ffffffff16565b6000808573ffffffffffffffffffffffffffffffffffffffff1673ffffffffffffffffffffffffffffffffffffffff168152602001908152602001600020819055508273ffffffffffffffffffffffffffffffffffffffff168473ffffffffffffffffffffffffffffffffffffffff167fddf252ad1be2c89b69c2b068fc378daa952ba7f163c4a11628f55a4df523b3ef846040516107359190610c63565b60405180910390a3600190509392505050565b601281565b60008060008373ffffffffffffffffffffffffffffffffffffffff1673ffffffffffffffffffffffffffffffffffffffff168152602001908152602001600020549050919050565b6040518060400160405280600381526020017f455243000000000000000000000000000000000000000000000000000000000081525081565b60008060003373ffffffffffffffffffffffffffffffffffffffff1673ffffffffffffffffffffffffffffffffffffffff1681526020019081526020016000205482111561081b57600080fd5b61086c826000803373ffffffffffffffffffffffffffffffffffffffff1673ffffffffffffffffffffffffffffffffffffffff16815260200190815260200160002054610a3790919063ffffffff16565b6000803373ffffffffffffffffffffffffffffffffffffffff1673ffffffffffffffffffffffffffffffffffffffff168152602001908152602001600020819055506108ff826000808673ffffffffffffffffffffffffffffffffffffffff1673ffffffffffffffffffffffffffffffffffffffff16815260200190815260200160002054610a5e90919063ffffffff16565b6000808573ffffffffffffffffffffffffffffffffffffffff1673ffffffffffffffffffffffffffffffffffffffff168152602001908152602001600020819055508273ffffffffffffffffffffffffffffffffffffffff163373ffffffffffffffffffffffffffffffffffffffff167fddf252ad1be2c89b69c2b068fc378daa952ba7f163c4a11628f55a4df523b3ef8460405161099e9190610c63565b60405180910390a36001905092915050565b6000600160008473ffffffffffffffffffffffffffffffffffffffff1673ffffffffffffffffffffffffffffffffffffffff16815260200190815260200160002060008373ffffffffffffffffffffffffffffffffffffffff1673ffffffffffffffffffffffffffffffffffffffff16815260200190815260200160002054905092915050565b600082821115610a4a57610a49610e27565b5b8183610a569190610e56565b905092915050565b6000808284610a6d9190610dd1565b905083811015610a8057610a7f610e27565b5b8091505092915050565b600081519050919050565b600082825260208201905092915050565b60005b83811015610ac4578082015181840152602081019050610aa9565b83811115610ad3576000848401525b50505050565b6000601f19601f8301169050919050565b6000610af582610a8a565b610aff8185610a95565b9350610b0f818560208601610aa6565b610b1881610ad9565b840191505092915050565b60006020820190508181036000830152610b3d8184610aea565b905092915050565b600080fd5b600073ffffffffffffffffffffffffffffffffffffffff82169050919050565b6000610b7582610b4a565b9050919050565b610b8581610b6a565b8114610b9057600080fd5b50565b600081359050610ba281610b7c565b92915050565b6000819050919050565b610bbb81610ba8565b8114610bc657600080fd5b50565b600081359050610bd881610bb2565b92915050565b60008060408385031215610bf557610bf4610b45565b5b6000610c0385828601610b93565b9250506020610c1485828601610bc9565b9150509250929050565b60008115159050919050565b610c3381610c1e565b82525050565b6000602082019050610c4e6000830184610c2a565b92915050565b610c5d81610ba8565b82525050565b6000602082019050610c786000830184610c54565b92915050565b600060208284031215610c9457610c93610b45565b5b6000610ca284828501610bc9565b91505092915050565b600080600060608486031215610cc457610cc3610b45565b5b6000610cd286828701610b93565b9350506020610ce386828701610b93565b9250506040610cf486828701610bc9565b9150509250925092565b600060ff82169050919050565b610d1481610cfe565b82525050565b6000602082019050610d2f6000830184610d0b565b92915050565b600060208284031215610d4b57610d4a610b45565b5b6000610d5984828501610b93565b91505092915050565b60008060408385031215610d7957610d78610b45565b5b6000610d8785828601610b93565b9250506020610d9885828601610b93565b9150509250929050565b7f4e487b7100000000000000000000000000000000000000000000000000000000600052601160045260246000fd5b6000610ddc82610ba8565b9150610de783610ba8565b9250827fffffffffffffffffffffffffffffffffffffffffffffffffffffffffffffffff03821115610e1c57610e1b610da2565b5b828201905092915050565b7f4e487b7100000000000000000000000000000000000000000000000000000000600052600160045260246000fd5b6000610e6182610ba8565b9150610e6c83610ba8565b925082821015610e7f57610e7e610da2565b5b82820390509291505056fea26469706673582212204198cadc0a72ca33814f8aee7ebfa7cddad35352bf30ba256471d94298a7b7a764736f6c634300080a0033",
  "immutableReferences": {},
  "source": "// SPDX-License-Identifier: MIT\r\npragma solidity >= 0.8.10 <0.9.0;\r\nimport \"./ERC20.sol\";\r\n\r\ncontract Main {\r\n\r\n    // Clase del token\r\n    ERC20Basic private token;\r\n\r\n    // Direccion del propietario\r\n    address public owner;\r\n\r\n    // Direccion del contrato\r\n    address public contrato;\r\n\r\n    constructor () {\r\n        token = new ERC20Basic(10000);\r\n        owner = msg.sender;\r\n        contrato = address(this);\r\n    }\r\n\r\n    function getOwner() public view returns(address) {\r\n        return owner;\r\n    }\r\n\r\n    function getContract() public view returns(address) {\r\n        return contrato;\r\n    }\r\n\r\n    function PrecioTokens(uint _numTokens) internal pure returns(uint) {\r\n        return (_numTokens * (1 ether));\r\n    }\r\n\r\n    // En esta funciona no hay compra de los tokens, son gratuitos\r\n    function send_tokens(address _destinatario, uint _numTokens) public payable {\r\n        require(_numTokens <= 10, 'La cantidad de tokens es demasiado alta');\r\n        uint coste = PrecioTokens(_numTokens);\r\n        require(msg.value >= coste, 'Compra menos tokens o paga con mas ethers');\r\n        // Diferencia de lo que cliente paga\r\n        uint returnValue = msg.value - coste;\r\n        // Devolvemos lo que sobra\r\n        payable(msg.sender).transfer(returnValue); \r\n        // Obtener de balance de tokens disponible\r\n        uint balance = balance_contrato();\r\n        require(balance >= _numTokens, 'Compra un numero menor de tokens');\r\n        token.transfer(_destinatario, _numTokens);\r\n    } \r\n\r\n    function GenerarTokens(uint _numTokens) public onlyByOwner {\r\n        token.increaseTotalSupply(_numTokens);\r\n    }\r\n\r\n    modifier onlyByOwner() {\r\n        require(msg.sender == owner, 'No tiene permisos par ejecutar esta funcion');\r\n        _;\r\n    }\r\n\r\n    function balance_direccion(address _direccion) public view returns(uint) {\r\n        return token.balanceOf(_direccion);\r\n    }\r\n\r\n    function balance_contrato() public view returns(uint) {\r\n        return token.balanceOf(contrato);\r\n    }\r\n\r\n}",
  "sourcePath": "C:\\Users\\apolenyaka\\dwhelper\\Curso Crea DApps con Tokens NFT en Ethereum usando Truffle y React en Udemy.com\\codificando\\dapps\\ERC20\\src\\contracts\\Main.sol",
  "compiler": {
    "name": "solc",
    "version": "0.8.10+commit.fc410830.Emscripten.clang"
  },
  "schemaVersion": "3.4.3",
  "updatedAt": "2021-11-29T07:07:05.862Z",
  "networkType": "ethereum",
  "devdoc": {
    "kind": "dev",
    "methods": {},
    "version": 1
  },
  "userdoc": {
    "kind": "user",
    "methods": {},
    "version": 1
  }
}