{
  "contractName": "Oracle",
  "abi": [
    {
      "inputs": [],
      "stateMutability": "nonpayable",
      "type": "constructor"
    },
    {
      "anonymous": false,
      "inputs": [],
      "name": "__calbackNewData",
      "type": "event"
    },
    {
      "inputs": [],
      "name": "numberAsteroids",
      "outputs": [
        {
          "internalType": "uint256",
          "name": "",
          "type": "uint256"
        }
      ],
      "stateMutability": "view",
      "type": "function",
      "constant": true
    },
    {
      "inputs": [],
      "name": "update",
      "outputs": [],
      "stateMutability": "nonpayable",
      "type": "function"
    },
    {
      "inputs": [
        {
          "internalType": "uint256",
          "name": "_num",
          "type": "uint256"
        }
      ],
      "name": "setNumberAsteroids",
      "outputs": [],
      "stateMutability": "nonpayable",
      "type": "function"
    }
  ],
  "bytecode": "0x608060405234801561001057600080fd5b50336000806101000a81548173ffffffffffffffffffffffffffffffffffffffff021916908373ffffffffffffffffffffffffffffffffffffffff16021790555061033a806100606000396000f3fe608060405234801561001057600080fd5b50600436106100415760003560e01c8063402bc6bb14610046578063829400cb14610062578063a2e6204514610080575b600080fd5b610060600480360381019061005b91906101f9565b61008a565b005b61006a610122565b60405161007791906102b7565b60405180910390f35b610088610128565b005b3373ffffffffffffffffffffffffffffffffffffffff1660008054906101000a900473ffffffffffffffffffffffffffffffffffffffff1673ffffffffffffffffffffffffffffffffffffffff1614610118576040517f08c379a000000000000000000000000000000000000000000000000000000000815260040161010f90610297565b60405180910390fd5b8060018190555050565b60015481565b3373ffffffffffffffffffffffffffffffffffffffff1660008054906101000a900473ffffffffffffffffffffffffffffffffffffffff1673ffffffffffffffffffffffffffffffffffffffff16146101b6576040517f08c379a00000000000000000000000000000000000000000000000000000000081526004016101ad90610297565b60405180910390fd5b7f487836118ce6cfa1f22cdfe1ec056d90c2ba0135d9a1cd3cc0599d8b1cc650b760405160405180910390a1565b6000813590506101f3816102ed565b92915050565b60006020828403121561020b57600080fd5b6000610219848285016101e4565b91505092915050565b600061022f602d836102d2565b91507f4e6f207469656e65207065726d69736f73207061726120656a6563757461722060008301527f657374612066756e63696f6e2e000000000000000000000000000000000000006020830152604082019050919050565b610291816102e3565b82525050565b600060208201905081810360008301526102b081610222565b9050919050565b60006020820190506102cc6000830184610288565b92915050565b600082825260208201905092915050565b6000819050919050565b6102f6816102e3565b811461030157600080fd5b5056fea26469706673582212207acab7f09b63000f37ec02f0b30ec12536a3f25305a09987dbc3158e526c403564736f6c63430008000033",
  "immutableReferences": {},
  "source": "// SPDX-License-Identifier: MIT\npragma solidity ^0.8.0;\n\ncontract Oracle {\n    // API que vamos utilizar de la NASA: GET https://api.nasa.gov/neo/rest/v1/feed?start_date=START_DATE&end_date=END_DATE&api_key=API_KEY \n    address owner;\n    \n    // Numero de asteroides\n    uint public numberAsteroids;\n\n    event __calbackNewData();\n    \n    constructor () {\n        owner = msg.sender;\n    }\n    \n    modifier onlyOwner() {\n        require(owner == msg.sender, 'No tiene permisos para ejecutar esta funcion.');\n        _;\n    }\n    \n    function update() public onlyOwner {\n        emit __calbackNewData();\n    }\n    \n    function setNumberAsteroids(uint _num) public onlyOwner {\n        numberAsteroids = _num;\n    }\n    \n}",
  "sourcePath": "/Users/antonpolenyaka/Desktop/Oracle/contracts/Oracle.sol",
  "compiler": {
    "name": "solc",
    "version": "0.8.0+commit.c7dfd78e.Emscripten.clang"
  },
  "schemaVersion": "3.4.3",
  "updatedAt": "2021-11-14T13:42:39.339Z",
  "networkType": "ethereum",
  "devdoc": {
    "kind": "dev",
    "methods": {},
    "version": 1
  },
  "userdoc": {
    "kind": "user",
    "methods": {},
    "version": 1
  }
}