{
  "contractName": "notas",
  "abi": [
    {
      "inputs": [],
      "stateMutability": "nonpayable",
      "type": "constructor"
    },
    {
      "anonymous": false,
      "inputs": [
        {
          "indexed": false,
          "internalType": "bytes32",
          "name": "",
          "type": "bytes32"
        }
      ],
      "name": "alumno_evaluado",
      "type": "event"
    },
    {
      "anonymous": false,
      "inputs": [
        {
          "indexed": false,
          "internalType": "string",
          "name": "",
          "type": "string"
        }
      ],
      "name": "evento_revision",
      "type": "event"
    },
    {
      "inputs": [],
      "name": "profesor",
      "outputs": [
        {
          "internalType": "address",
          "name": "",
          "type": "address"
        }
      ],
      "stateMutability": "view",
      "type": "function",
      "constant": true
    },
    {
      "inputs": [
        {
          "internalType": "string",
          "name": "_asignatura",
          "type": "string"
        },
        {
          "internalType": "string",
          "name": "_idAlumno",
          "type": "string"
        },
        {
          "internalType": "uint256",
          "name": "_nota",
          "type": "uint256"
        }
      ],
      "name": "Evaluar",
      "outputs": [],
      "stateMutability": "nonpayable",
      "type": "function"
    },
    {
      "inputs": [
        {
          "internalType": "string",
          "name": "_asignatura",
          "type": "string"
        },
        {
          "internalType": "string",
          "name": "_idAlumno",
          "type": "string"
        }
      ],
      "name": "VerNotas",
      "outputs": [
        {
          "internalType": "uint256",
          "name": "",
          "type": "uint256"
        }
      ],
      "stateMutability": "view",
      "type": "function",
      "constant": true
    },
    {
      "inputs": [
        {
          "internalType": "string",
          "name": "_asignatura",
          "type": "string"
        },
        {
          "internalType": "string",
          "name": "_idAlumno",
          "type": "string"
        }
      ],
      "name": "Revision",
      "outputs": [],
      "stateMutability": "nonpayable",
      "type": "function"
    },
    {
      "inputs": [
        {
          "internalType": "string",
          "name": "_asignatura",
          "type": "string"
        }
      ],
      "name": "VerRevisiones",
      "outputs": [
        {
          "internalType": "string[]",
          "name": "",
          "type": "string[]"
        }
      ],
      "stateMutability": "view",
      "type": "function",
      "constant": true
    }
  ],
  "bytecode": "0x608060405234801561001057600080fd5b50336000806101000a81548173ffffffffffffffffffffffffffffffffffffffff021916908373ffffffffffffffffffffffffffffffffffffffff160217905550610c64806100606000396000f3fe608060405234801561001057600080fd5b50600436106100575760003560e01c8063303622241461005c578063593cbcf01461008c57806395bb498f146100a8578063df096576146100d8578063df3bba9f146100f6575b600080fd5b610076600480360381019061007191906106b0565b610112565b6040516100839190610843565b60405180910390f35b6100a660048036038101906100a1919061089b565b610299565b005b6100c260048036038101906100bd9190610926565b6103ab565b6040516100cf91906109ad565b60405180910390f35b6100e06103fc565b6040516100ed9190610a09565b60405180910390f35b610110600480360381019061010b9190610926565b610420565b005b60603360008054906101000a900473ffffffffffffffffffffffffffffffffffffffff1673ffffffffffffffffffffffffffffffffffffffff168173ffffffffffffffffffffffffffffffffffffffff16146101a3576040517f08c379a000000000000000000000000000000000000000000000000000000000815260040161019a90610aa7565b60405180910390fd5b6002836040516101b39190610b03565b9081526020016040518091039020805480602002602001604051908101604052809291908181526020016000905b8282101561028d57838290600052602060002001805461020090610b49565b80601f016020809104026020016040519081016040528092919081815260200182805461022c90610b49565b80156102795780601f1061024e57610100808354040283529160200191610279565b820191906000526020600020905b81548152906001019060200180831161025c57829003601f168201915b5050505050815260200190600101906101e1565b50505050915050919050565b3360008054906101000a900473ffffffffffffffffffffffffffffffffffffffff1673ffffffffffffffffffffffffffffffffffffffff168173ffffffffffffffffffffffffffffffffffffffff1614610328576040517f08c379a000000000000000000000000000000000000000000000000000000000815260040161031f90610aa7565b60405180910390fd5b6000848460405160200161033d929190610b7b565b6040516020818303038152906040528051906020012090508260016000838152602001908152602001600020819055507f9129eeeb684507aca017f10030b70e5bf86d129f417fcc5840348a957eb12cee8160405161039c9190610bb8565b60405180910390a15050505050565b60008083836040516020016103c1929190610b7b565b604051602081830303815290604052805190602001209050600060016000838152602001908152602001600020549050809250505092915050565b60008054906101000a900473ffffffffffffffffffffffffffffffffffffffff1681565b6002826040516104309190610b03565b9081526020016040518091039020819080600181540180825580915050600190039060005260206000200160009091909190915090805190602001906104779291906104b3565b507fafd73f39162aa4c0421f362f3a3d26f44b23c73253256cfc1c68794b0973e0a0816040516104a79190610c0c565b60405180910390a15050565b8280546104bf90610b49565b90600052602060002090601f0160209004810192826104e15760008555610528565b82601f106104fa57805160ff1916838001178555610528565b82800160010185558215610528579182015b8281111561052757825182559160200191906001019061050c565b5b5090506105359190610539565b5090565b5b8082111561055257600081600090555060010161053a565b5090565b6000604051905090565b600080fd5b600080fd5b600080fd5b600080fd5b6000601f19601f8301169050919050565b7f4e487b7100000000000000000000000000000000000000000000000000000000600052604160045260246000fd5b6105bd82610574565b810181811067ffffffffffffffff821117156105dc576105db610585565b5b80604052505050565b60006105ef610556565b90506105fb82826105b4565b919050565b600067ffffffffffffffff82111561061b5761061a610585565b5b61062482610574565b9050602081019050919050565b82818337600083830152505050565b600061065361064e84610600565b6105e5565b90508281526020810184848401111561066f5761066e61056f565b5b61067a848285610631565b509392505050565b600082601f8301126106975761069661056a565b5b81356106a7848260208601610640565b91505092915050565b6000602082840312156106c6576106c5610560565b5b600082013567ffffffffffffffff8111156106e4576106e3610565565b5b6106f084828501610682565b91505092915050565b600081519050919050565b600082825260208201905092915050565b6000819050602082019050919050565b600081519050919050565b600082825260208201905092915050565b60005b8381101561075f578082015181840152602081019050610744565b8381111561076e576000848401525b50505050565b600061077f82610725565b6107898185610730565b9350610799818560208601610741565b6107a281610574565b840191505092915050565b60006107b98383610774565b905092915050565b6000602082019050919050565b60006107d9826106f9565b6107e38185610704565b9350836020820285016107f585610715565b8060005b85811015610831578484038952815161081285826107ad565b945061081d836107c1565b925060208a019950506001810190506107f9565b50829750879550505050505092915050565b6000602082019050818103600083015261085d81846107ce565b905092915050565b6000819050919050565b61087881610865565b811461088357600080fd5b50565b6000813590506108958161086f565b92915050565b6000806000606084860312156108b4576108b3610560565b5b600084013567ffffffffffffffff8111156108d2576108d1610565565b5b6108de86828701610682565b935050602084013567ffffffffffffffff8111156108ff576108fe610565565b5b61090b86828701610682565b925050604061091c86828701610886565b9150509250925092565b6000806040838503121561093d5761093c610560565b5b600083013567ffffffffffffffff81111561095b5761095a610565565b5b61096785828601610682565b925050602083013567ffffffffffffffff81111561098857610987610565565b5b61099485828601610682565b9150509250929050565b6109a781610865565b82525050565b60006020820190506109c2600083018461099e565b92915050565b600073ffffffffffffffffffffffffffffffffffffffff82169050919050565b60006109f3826109c8565b9050919050565b610a03816109e8565b82525050565b6000602082019050610a1e60008301846109fa565b92915050565b600082825260208201905092915050565b7f4e6f207469656e6573207065726d69736f73207061726120656a65637574617260008201527f20657374612066756e63696f6e2e000000000000000000000000000000000000602082015250565b6000610a91602e83610a24565b9150610a9c82610a35565b604082019050919050565b60006020820190508181036000830152610ac081610a84565b9050919050565b600081905092915050565b6000610add82610725565b610ae78185610ac7565b9350610af7818560208601610741565b80840191505092915050565b6000610b0f8284610ad2565b915081905092915050565b7f4e487b7100000000000000000000000000000000000000000000000000000000600052602260045260246000fd5b60006002820490506001821680610b6157607f821691505b60208210811415610b7557610b74610b1a565b5b50919050565b6000610b878285610ad2565b9150610b938284610ad2565b91508190509392505050565b6000819050919050565b610bb281610b9f565b82525050565b6000602082019050610bcd6000830184610ba9565b92915050565b6000610bde82610725565b610be88185610a24565b9350610bf8818560208601610741565b610c0181610574565b840191505092915050565b60006020820190508181036000830152610c268184610bd3565b90509291505056fea2646970667358221220c5466138a91bcd3a44ce9845000b137294b53267577eaf95772be456e3d4e7ab64736f6c634300080a0033",
  "immutableReferences": {},
  "source": "// SPDX-License-Identifier: MIT\npragma solidity >=0.8.0 <0.9.0;\npragma experimental ABIEncoderV2;\n\n// -----------------------------------\n//  ALUMNO   |    ID    |      NOTA\n// -----------------------------------\n//  Marcos |    77755N    |      5\n//  Joan   |    12345X    |      9\n//  Maria  |    02468T    |      2\n//  Marta  |    13579U    |      3\n//  Alba   |    98765Z    |      5\n\ncontract notas {\n    \n    // Direccion del profesor\n    address public profesor;\n    \n    // Constructor \n    constructor () {\n        profesor = msg.sender;\n    }\n    \n    // Mapping para relacionar el hash de la identidad del alumno con su nota del examen\n    mapping (bytes32 => uint) Notas;\n    \n    // Mapping asignatura a las revisiones de los alumnos de pidan revisiones de examen de esta asignatura\n    mapping(string => string []) revisiones;\n    \n    // Eventos \n    event alumno_evaluado(bytes32);\n    event evento_revision(string);\n    \n    // Funcion para evaluar a alumnos\n    function Evaluar(string memory _asignatura, string memory _idAlumno, uint _nota) public UnicamenteProfesor(msg.sender){\n        // Hash de la identificacion del alumno \n        bytes32 hash_AsignaturaIdAlumno = keccak256(abi.encodePacked(_asignatura,_idAlumno));\n        // Relacion entre el hash de la identificacion del alumno y su nota\n        Notas[hash_AsignaturaIdAlumno] = _nota;\n        // Emision del evento\n        emit alumno_evaluado(hash_AsignaturaIdAlumno);\n    }\n    \n    // Control de las funciones ejecutables por el profesor\n    modifier UnicamenteProfesor(address _direccion){\n        // Requiere que la direccion introducido por parametro sea igual al owner del contrato\n        require(_direccion == profesor, \"No tienes permisos para ejecutar esta funcion.\");\n        _;\n    }\n    \n    // Funcion para ver las notas de un alumno \n    function VerNotas(string memory _asignatura, string memory _idAlumno) public view returns(uint) {\n        // Hash de la identificacion del alumno \n        bytes32 hash_AsignaturaIdAlumno = keccak256(abi.encodePacked(_asignatura, _idAlumno));\n        // Nota asociada al hash del alumno\n        uint nota_alumno = Notas[hash_AsignaturaIdAlumno];\n        // Visualizar la nota \n        return nota_alumno;\n    } \n    \n    // Funcion para pedir una revision del examen\n    function Revision(string memory _asignatura, string memory _idAlumno) public {\n        // Almacenamiento de la identidad del alumno en un array\n        revisiones[_asignatura].push(_idAlumno);\n        // Emision del evento \n        emit evento_revision(_idAlumno);\n    }\n    \n    // Funcion para ver los alumnos que han solicitado revision de examen\n    function VerRevisiones(string memory _asignatura) public view UnicamenteProfesor(msg.sender) returns (string [] memory){\n        // Devolver las identidades de los alumnos\n        return revisiones[_asignatura];\n    }\n    \n}",
  "sourcePath": "/Users/antonpolenyaka/Desktop/notas/contracts/notas.sol",
  "compiler": {
    "name": "solc",
    "version": "0.8.10+commit.fc410830.Emscripten.clang"
  },
  "schemaVersion": "3.4.3",
  "updatedAt": "2021-11-14T10:23:00.478Z",
  "networkType": "ethereum",
  "devdoc": {
    "kind": "dev",
    "methods": {},
    "version": 1
  },
  "userdoc": {
    "kind": "user",
    "methods": {},
    "version": 1
  }
}