{
  "contractName": "ERC20Basic",
  "abi": [
    {
      "inputs": [
        {
          "internalType": "uint256",
          "name": "total",
          "type": "uint256"
        }
      ],
      "stateMutability": "nonpayable",
      "type": "constructor"
    },
    {
      "anonymous": false,
      "inputs": [
        {
          "indexed": true,
          "internalType": "address",
          "name": "owner",
          "type": "address"
        },
        {
          "indexed": true,
          "internalType": "address",
          "name": "spender",
          "type": "address"
        },
        {
          "indexed": false,
          "internalType": "uint256",
          "name": "value",
          "type": "uint256"
        }
      ],
      "name": "Approval",
      "type": "event"
    },
    {
      "anonymous": false,
      "inputs": [
        {
          "indexed": true,
          "internalType": "address",
          "name": "from",
          "type": "address"
        },
        {
          "indexed": true,
          "internalType": "address",
          "name": "to",
          "type": "address"
        },
        {
          "indexed": false,
          "internalType": "uint256",
          "name": "value",
          "type": "uint256"
        }
      ],
      "name": "Transfer",
      "type": "event"
    },
    {
      "inputs": [],
      "name": "decimals",
      "outputs": [
        {
          "internalType": "uint8",
          "name": "",
          "type": "uint8"
        }
      ],
      "stateMutability": "view",
      "type": "function"
    },
    {
      "inputs": [],
      "name": "name",
      "outputs": [
        {
          "internalType": "string",
          "name": "",
          "type": "string"
        }
      ],
      "stateMutability": "view",
      "type": "function"
    },
    {
      "inputs": [],
      "name": "symbol",
      "outputs": [
        {
          "internalType": "string",
          "name": "",
          "type": "string"
        }
      ],
      "stateMutability": "view",
      "type": "function"
    },
    {
      "inputs": [],
      "name": "totalSupply",
      "outputs": [
        {
          "internalType": "uint256",
          "name": "",
          "type": "uint256"
        }
      ],
      "stateMutability": "view",
      "type": "function"
    },
    {
      "inputs": [
        {
          "internalType": "uint256",
          "name": "newTokens",
          "type": "uint256"
        }
      ],
      "name": "increaseTotalSuply",
      "outputs": [],
      "stateMutability": "nonpayable",
      "type": "function"
    },
    {
      "inputs": [
        {
          "internalType": "address",
          "name": "tokenOwner",
          "type": "address"
        }
      ],
      "name": "balanceOf",
      "outputs": [
        {
          "internalType": "uint256",
          "name": "",
          "type": "uint256"
        }
      ],
      "stateMutability": "view",
      "type": "function"
    },
    {
      "inputs": [
        {
          "internalType": "address",
          "name": "receiver",
          "type": "address"
        },
        {
          "internalType": "uint256",
          "name": "numTokens",
          "type": "uint256"
        }
      ],
      "name": "transfer",
      "outputs": [
        {
          "internalType": "bool",
          "name": "",
          "type": "bool"
        }
      ],
      "stateMutability": "nonpayable",
      "type": "function"
    },
    {
      "inputs": [
        {
          "internalType": "address",
          "name": "sender",
          "type": "address"
        },
        {
          "internalType": "address",
          "name": "receiver",
          "type": "address"
        },
        {
          "internalType": "uint256",
          "name": "numTokens",
          "type": "uint256"
        }
      ],
      "name": "transferencia_loteria",
      "outputs": [
        {
          "internalType": "bool",
          "name": "",
          "type": "bool"
        }
      ],
      "stateMutability": "nonpayable",
      "type": "function"
    },
    {
      "inputs": [
        {
          "internalType": "address",
          "name": "delegate",
          "type": "address"
        },
        {
          "internalType": "uint256",
          "name": "numTokens",
          "type": "uint256"
        }
      ],
      "name": "approve",
      "outputs": [
        {
          "internalType": "bool",
          "name": "",
          "type": "bool"
        }
      ],
      "stateMutability": "nonpayable",
      "type": "function"
    },
    {
      "inputs": [
        {
          "internalType": "address",
          "name": "owner",
          "type": "address"
        },
        {
          "internalType": "address",
          "name": "delegate",
          "type": "address"
        }
      ],
      "name": "allowance",
      "outputs": [
        {
          "internalType": "uint256",
          "name": "",
          "type": "uint256"
        }
      ],
      "stateMutability": "view",
      "type": "function"
    },
    {
      "inputs": [
        {
          "internalType": "address",
          "name": "owner",
          "type": "address"
        },
        {
          "internalType": "address",
          "name": "buyer",
          "type": "address"
        },
        {
          "internalType": "uint256",
          "name": "numTokens",
          "type": "uint256"
        }
      ],
      "name": "transferFrom",
      "outputs": [
        {
          "internalType": "bool",
          "name": "",
          "type": "bool"
        }
      ],
      "stateMutability": "nonpayable",
      "type": "function"
    }
  ],
  "bytecode": "0x608060405234801561001057600080fd5b50604051620011dc380380620011dc833981810160405281019061003491906100c1565b806002819055506002546000803373ffffffffffffffffffffffffffffffffffffffff1673ffffffffffffffffffffffffffffffffffffffff16815260200190815260200160002081905550506100ee565b600080fd5b6000819050919050565b61009e8161008b565b81146100a957600080fd5b50565b6000815190506100bb81610095565b92915050565b6000602082840312156100d7576100d6610086565b5b60006100e5848285016100ac565b91505092915050565b6110de80620000fe6000396000f3fe608060405234801561001057600080fd5b50600436106100a95760003560e01c80634ee22adf116100715780634ee22adf1461016857806370a082311461018457806395d89b41146101b4578063a9059cbb146101d2578063dd62ed3e14610202578063f7a1d19414610232576100a9565b806306fdde03146100ae578063095ea7b3146100cc57806318160ddd146100fc57806323b872dd1461011a578063313ce5671461014a575b600080fd5b6100b6610262565b6040516100c39190610d41565b60405180910390f35b6100e660048036038101906100e19190610dfc565b61029b565b6040516100f39190610e57565b60405180910390f35b61010461038d565b6040516101119190610e81565b60405180910390f35b610134600480360381019061012f9190610e9c565b610397565b6040516101419190610e57565b60405180910390f35b610152610712565b60405161015f9190610f0b565b60405180910390f35b610182600480360381019061017d9190610f26565b610717565b005b61019e60048036038101906101999190610f53565b610788565b6040516101ab9190610e81565b60405180910390f35b6101bc6107d0565b6040516101c99190610d41565b60405180910390f35b6101ec60048036038101906101e79190610dfc565b610809565b6040516101f99190610e57565b60405180910390f35b61021c60048036038101906102179190610f80565b6109eb565b6040516102299190610e81565b60405180910390f35b61024c60048036038101906102479190610e9c565b610a72565b6040516102599190610e57565b60405180910390f35b6040518060400160405280600a81526020017f455243323042617369630000000000000000000000000000000000000000000081525081565b600081600160003373ffffffffffffffffffffffffffffffffffffffff1673ffffffffffffffffffffffffffffffffffffffff16815260200190815260200160002060008573ffffffffffffffffffffffffffffffffffffffff1673ffffffffffffffffffffffffffffffffffffffff168152602001908152602001600020819055508273ffffffffffffffffffffffffffffffffffffffff163373ffffffffffffffffffffffffffffffffffffffff167f8c5be1e5ebec7d5bd14f71427d1e84f3dd0314c0f7b2291e5b200ac8c7c3b9258460405161037b9190610e81565b60405180910390a36001905092915050565b6000600254905090565b60008060008573ffffffffffffffffffffffffffffffffffffffff1673ffffffffffffffffffffffffffffffffffffffff168152602001908152602001600020548211156103e457600080fd5b600160008573ffffffffffffffffffffffffffffffffffffffff1673ffffffffffffffffffffffffffffffffffffffff16815260200190815260200160002060003373ffffffffffffffffffffffffffffffffffffffff1673ffffffffffffffffffffffffffffffffffffffff1681526020019081526020016000205482111561046d57600080fd5b6104be826000808773ffffffffffffffffffffffffffffffffffffffff1673ffffffffffffffffffffffffffffffffffffffff16815260200190815260200160002054610c5590919063ffffffff16565b6000808673ffffffffffffffffffffffffffffffffffffffff1673ffffffffffffffffffffffffffffffffffffffff1681526020019081526020016000208190555061058f82600160008773ffffffffffffffffffffffffffffffffffffffff1673ffffffffffffffffffffffffffffffffffffffff16815260200190815260200160002060003373ffffffffffffffffffffffffffffffffffffffff1673ffffffffffffffffffffffffffffffffffffffff16815260200190815260200160002054610c5590919063ffffffff16565b600160008673ffffffffffffffffffffffffffffffffffffffff1673ffffffffffffffffffffffffffffffffffffffff16815260200190815260200160002060003373ffffffffffffffffffffffffffffffffffffffff1673ffffffffffffffffffffffffffffffffffffffff16815260200190815260200160002081905550610660826000808673ffffffffffffffffffffffffffffffffffffffff1673ffffffffffffffffffffffffffffffffffffffff16815260200190815260200160002054610c7c90919063ffffffff16565b6000808573ffffffffffffffffffffffffffffffffffffffff1673ffffffffffffffffffffffffffffffffffffffff168152602001908152602001600020819055508273ffffffffffffffffffffffffffffffffffffffff168473ffffffffffffffffffffffffffffffffffffffff167fddf252ad1be2c89b69c2b068fc378daa952ba7f163c4a11628f55a4df523b3ef846040516106ff9190610e81565b60405180910390a3600190509392505050565b600281565b80600260008282546107299190610fef565b92505081905550806000803373ffffffffffffffffffffffffffffffffffffffff1673ffffffffffffffffffffffffffffffffffffffff168152602001908152602001600020600082825461077e9190610fef565b9250508190555050565b60008060008373ffffffffffffffffffffffffffffffffffffffff1673ffffffffffffffffffffffffffffffffffffffff168152602001908152602001600020549050919050565b6040518060400160405280600981526020017f4a424a2d544f4b454e000000000000000000000000000000000000000000000081525081565b60008060003373ffffffffffffffffffffffffffffffffffffffff1673ffffffffffffffffffffffffffffffffffffffff1681526020019081526020016000205482111561085657600080fd5b6108a7826000803373ffffffffffffffffffffffffffffffffffffffff1673ffffffffffffffffffffffffffffffffffffffff16815260200190815260200160002054610c5590919063ffffffff16565b6000803373ffffffffffffffffffffffffffffffffffffffff1673ffffffffffffffffffffffffffffffffffffffff1681526020019081526020016000208190555061093a826000808673ffffffffffffffffffffffffffffffffffffffff1673ffffffffffffffffffffffffffffffffffffffff16815260200190815260200160002054610c7c90919063ffffffff16565b6000808573ffffffffffffffffffffffffffffffffffffffff1673ffffffffffffffffffffffffffffffffffffffff168152602001908152602001600020819055508273ffffffffffffffffffffffffffffffffffffffff163373ffffffffffffffffffffffffffffffffffffffff167fddf252ad1be2c89b69c2b068fc378daa952ba7f163c4a11628f55a4df523b3ef846040516109d99190610e81565b60405180910390a36001905092915050565b6000600160008473ffffffffffffffffffffffffffffffffffffffff1673ffffffffffffffffffffffffffffffffffffffff16815260200190815260200160002060008373ffffffffffffffffffffffffffffffffffffffff1673ffffffffffffffffffffffffffffffffffffffff16815260200190815260200160002054905092915050565b60008060008573ffffffffffffffffffffffffffffffffffffffff1673ffffffffffffffffffffffffffffffffffffffff16815260200190815260200160002054821115610abf57600080fd5b610b10826000808773ffffffffffffffffffffffffffffffffffffffff1673ffffffffffffffffffffffffffffffffffffffff16815260200190815260200160002054610c5590919063ffffffff16565b6000808673ffffffffffffffffffffffffffffffffffffffff1673ffffffffffffffffffffffffffffffffffffffff16815260200190815260200160002081905550610ba3826000808673ffffffffffffffffffffffffffffffffffffffff1673ffffffffffffffffffffffffffffffffffffffff16815260200190815260200160002054610c7c90919063ffffffff16565b6000808573ffffffffffffffffffffffffffffffffffffffff1673ffffffffffffffffffffffffffffffffffffffff168152602001908152602001600020819055508273ffffffffffffffffffffffffffffffffffffffff168473ffffffffffffffffffffffffffffffffffffffff167fddf252ad1be2c89b69c2b068fc378daa952ba7f163c4a11628f55a4df523b3ef84604051610c429190610e81565b60405180910390a3600190509392505050565b600082821115610c6857610c67611045565b5b8183610c749190611074565b905092915050565b6000808284610c8b9190610fef565b905083811015610c9e57610c9d611045565b5b8091505092915050565b600081519050919050565b600082825260208201905092915050565b60005b83811015610ce2578082015181840152602081019050610cc7565b83811115610cf1576000848401525b50505050565b6000601f19601f8301169050919050565b6000610d1382610ca8565b610d1d8185610cb3565b9350610d2d818560208601610cc4565b610d3681610cf7565b840191505092915050565b60006020820190508181036000830152610d5b8184610d08565b905092915050565b600080fd5b600073ffffffffffffffffffffffffffffffffffffffff82169050919050565b6000610d9382610d68565b9050919050565b610da381610d88565b8114610dae57600080fd5b50565b600081359050610dc081610d9a565b92915050565b6000819050919050565b610dd981610dc6565b8114610de457600080fd5b50565b600081359050610df681610dd0565b92915050565b60008060408385031215610e1357610e12610d63565b5b6000610e2185828601610db1565b9250506020610e3285828601610de7565b9150509250929050565b60008115159050919050565b610e5181610e3c565b82525050565b6000602082019050610e6c6000830184610e48565b92915050565b610e7b81610dc6565b82525050565b6000602082019050610e966000830184610e72565b92915050565b600080600060608486031215610eb557610eb4610d63565b5b6000610ec386828701610db1565b9350506020610ed486828701610db1565b9250506040610ee586828701610de7565b9150509250925092565b600060ff82169050919050565b610f0581610eef565b82525050565b6000602082019050610f206000830184610efc565b92915050565b600060208284031215610f3c57610f3b610d63565b5b6000610f4a84828501610de7565b91505092915050565b600060208284031215610f6957610f68610d63565b5b6000610f7784828501610db1565b91505092915050565b60008060408385031215610f9757610f96610d63565b5b6000610fa585828601610db1565b9250506020610fb685828601610db1565b9150509250929050565b7f4e487b7100000000000000000000000000000000000000000000000000000000600052601160045260246000fd5b6000610ffa82610dc6565b915061100583610dc6565b9250827fffffffffffffffffffffffffffffffffffffffffffffffffffffffffffffffff0382111561103a57611039610fc0565b5b828201905092915050565b7f4e487b7100000000000000000000000000000000000000000000000000000000600052600160045260246000fd5b600061107f82610dc6565b915061108a83610dc6565b92508282101561109d5761109c610fc0565b5b82820390509291505056fea2646970667358221220765ffd1eb96c95f413e7d15455b7ddfda22202e29958cc2eed06893c0c383b9f64736f6c634300080a0033",
  "immutableReferences": {},
  "source": "// SPDX-License-Identifier: MIT\npragma solidity >= 0.8.10 <0.9.0;\npragma experimental ABIEncoderV2;\nimport \"./SafeMath.sol\";\n\n\ninterface IERC20{\n    function totalSupply() external view returns (uint256);\n    function balanceOf (address account) external view returns (uint256);\n    function allowance(address owner,address spender) external view returns (uint256);\n    function transfer(address recipient, uint256 amount) external returns (bool);\n    function transferencia_loteria(address sender, address recipient, uint256 amount) external returns (bool);\n    function approve (address spender, uint256 amount) external returns (bool);\n    function transferFrom(address sender, address recipient, uint amount) external returns (bool);\n    \n    event Transfer(address indexed from, address indexed to, uint256 value);\n    event Approval (address indexed owner, address indexed spender, uint256 value);\n}\n\ncontract ERC20Basic is IERC20 {\n    string public constant name = \"ERC20Basic\";\n    string public constant symbol = \"JBJ-TOKEN\";\n    uint8 public constant decimals = 2;\n    \n    mapping (address => uint) balances;\n    mapping(address => mapping (address => uint)) allowed;\n    uint256 totalSupply_;\n    \n    using SafeMath for uint256;\n    \n    constructor (uint256 total) {\n        totalSupply_ = total;\n        balances[msg.sender] = totalSupply_;\n    }\n    \n    function totalSupply() public override view returns (uint256){\n        return totalSupply_;\n    }\n    \n    function increaseTotalSuply(uint newTokens) public{\n        totalSupply_ += newTokens;\n        balances[msg.sender] += newTokens;\n    }\n    \n    function balanceOf (address tokenOwner) public override view returns (uint256){\n        return balances[tokenOwner];\n    }\n    \n    function transfer(address receiver, uint256 numTokens) public override returns (bool){\n        require(numTokens <= balances[msg.sender]);\n        balances[msg.sender] = balances[msg.sender].sub(numTokens);\n        balances[receiver] = balances[receiver].add(numTokens);\n        emit Transfer(msg.sender,receiver,numTokens);\n        return true;\n    } \n    \n    function transferencia_loteria(address sender, address receiver, uint256 numTokens) public override returns (bool){\n        require(numTokens <= balances[sender]);\n        balances[sender] = balances[sender].sub(numTokens);\n        balances[receiver] = balances[receiver].add(numTokens);\n        emit Transfer(sender,receiver,numTokens);\n        return true;\n    } \n    \n    function approve (address delegate, uint256 numTokens) public override returns (bool) {\n        allowed[msg.sender][delegate] = numTokens;\n        emit Approval(msg.sender, delegate, numTokens);\n        return true;\n    }\n    \n    function allowance (address owner, address delegate) public override view returns (uint){\n        return allowed[owner][delegate];\n    }\n    \n    function transferFrom(address owner, address buyer, uint256 numTokens) public override returns (bool){\n        require (numTokens <= balances[owner]);\n        require (numTokens <= allowed[owner][msg.sender]);\n        \n        balances[owner] = balances[owner].sub(numTokens);\n        allowed[owner][msg.sender] = allowed[owner][msg.sender].sub(numTokens);\n        balances[buyer] = balances[buyer].add(numTokens);\n        emit Transfer(owner,buyer,numTokens);\n        return true;\n    }\n    \n}",
  "sourcePath": "C:\\GitHub\\dapps\\Loteria\\src\\contracts\\ERC20.sol",
  "compiler": {
    "name": "solc",
    "version": "0.8.10+commit.fc410830.Emscripten.clang"
  },
  "schemaVersion": "3.4.3",
  "updatedAt": "2021-12-02T07:21:51.890Z",
  "devdoc": {
    "kind": "dev",
    "methods": {},
    "version": 1
  },
  "userdoc": {
    "kind": "user",
    "methods": {},
    "version": 1
  }
}